:060000000A128A110C280F
:10000800FE00030EF0000A08F1000A128A15062DF8
:100018000A128A110F280A128A11F8270A128A115D
:10002800FB00BA01BB01BC01BD01BE01BF01C0019B
:10003800C101C201C301C401C501C60183010A127D
:100048008A110E2E83120313B60033303106031DB6
:100058002E282F2869280030BD000030BC00003051
:10006800BB000030BA00C001C201C1016030F60017
:100078008830F7008030F8000A128A15D7240A124F
:100088008A118A3083120313AF00DF300A128A11F3
:10009800E3270A128A11C530F6008830F700C0300D
:1000A800F8000A128A15D7240A128A111130F600AC
:1000B8008830F700D030F8000A128A15D7240A12BF
:1000C8008A11FF3083120313B6002A303606031D47
:1000D8006E286F2879280030BD000030BC00003041
:1000E800BB000030BA00C201272923303606031DA1
:1000F8007E287F28B5283D083C043B043A04031DAC
:1001080086288728B3280A128A150B240A128A110E
:100118008830F6008830F700C230F8000A128A15D5
:10012800D7240A128A112230F6008830F70090305E
:10013800F8000A128A15D7240A128A111530831278
:100148000313B4004B30B300BD30B200B20BAA2881
:10015800B30BAA28B40BAA28B1283330122ADD30F1
:10016800122A360A0319B928BA2827292A30360646
:100178000319BF28C0282729233036060319C528A4
:10018800C62827294208031DCA28CB28DB280130A6
:10019800C2073608B200B301B401B5013508BD0085
:1001A8003408BC003308BB003208BA0020294203D7
:1001B800031DDF28E02819290130C2073608B200DC
:1001C800B301B401B5013D08F5003C08F4003B0853
:1001D800F3003A08F2000030F9000030F80000306F
:1001E800F7000A30F6000A128A1572250A128A11D7
:1001F800720883120313B20773080318730F0529D3
:100208000629B30774080318740F0B290C29B407BF
:1002180075080318750AB5073508BD003408BC0011
:100228003308BB003208BA00202902304206031DF9
:100238001E291F292029E02803304206031D2529ED
:100248002629272977283D08031D38293C08031D3E
:1002580038293B08031D3829B5303A02031D3429D3
:10026800031C3729382973290A128A150B240A1204
:100278008A119530F6008830F700C230F8000A126B
:100288008A15D7240A128A110F30F6008930F70030
:100298009330F8000A128A15D7240A128A111F30DF
:1002A800F6008930F7009830F8000A128A15D7242A
:1002B8000A128A119B3083120313AF00DF300A122F
:1002C8008A11E3270A128A119C3083120313AF00A4
:1002D80043300A128A11E3270A128A11A228013030
:1002E80083120313C007FB304006031D7C297D29B8
:1002F800112AC0014108031982298429013085295E
:100308000030C100C730AF000030F5000030F40005
:100318000030F3006430F2003D08F9003C08F800B2
:100328003B08F7003A08F6000A128A1531270A1224
:100338008A117208303E0A128A11E3270A128A11BA
:10034800C83083120313AF000030A8000030A700A4
:100358000030A6000A30A5000030F5000030F40097
:100368000030F3000A30F2003D08F9003C08F800BC
:100378003B08F7003A08F6000A128A1531270A12D4
:100388008A11750883120313AC007408AB00730854
:10039800AA007208A9000A128A15BE250A128A1133
:1003A800831203132508303E0A128A11E3270A1222
:1003B8008A11C93083120313AF000030A80000303F
:1003C800A7000030A6000A30A5003D08AC003C0894
:1003D800AB003B08AA003A08A9000A128A15BE25F4
:1003E8000A128A11831203132508303E0A128A1151
:1003F800E3270A128A118312031341080319052AF5
:10040800062A112A1B30F6008930F700C730F80099
:100418000A128A15D7240A128A11FF30080083129B
:100428000313B40033303106031D1B2A1C2A462A45
:10043800C201C301C601C501C0010030F600883001
:10044800F7008030F8000A128A15D7240A128A1198
:100458001530F6008930F700C030F8000A128A1506
:10046800D7240A128A111130F6008830F700D030EC
:10047800F8000A128A15D7240A128A11FF3083124B
:100488000313B40023303406031D4B2A4C2A4E2A8A
:100498000030782B2A303406031D532A542A612A47
:1004A80043080319582A592A5D2AC6010230C20096
:1004B8005F2AC501C201FF30B400340A0319652A56
:1004C800662ACB2A4308031D6A2A6B2A9D2A4208FA
:1004D800031D6F2A702A7B2A063034020318752AF6
:1004E800762A7B2A0130C2073408C5008E2A4203C7
:1004F800031D7F2A802A8E2A0130C2070A30F200A3
:1005080045080A128A151C240A128A118312031339
:100518003407C50002304206031D932A942ACB2AC9
:1005280043080319982A9A2A01309B2A0030C300ED
:10053800CB2A02304206031DA22AA32AA82A013088
:10054800C2073408C600BC2A03304206031DAD2A80
:10055800AE2ABC2A0130C2070A30F20046080A1245
:100568008A151C240A128A11831203133407C60041
:1005780004304206031DC12AC22ACB2AC2014308FD
:100588000319C72AC92A0130CA2A0030C30001301A
:10059800C007C9304006031DD22AD32A772BC001D1
:1005A80041080319D82ADA2A0130DB2A0030C100B1
:1005B800C530AF000A30F2000030F3004608B20040
:1005C800B3013208F4003308F5000A128A156B26C5
:1005D8000A128A117208303E0A128A11E3270A1297
:1005E8008A11C63083120313AF000A30A00000300E
:1005F800A1004608B200B3013208A2003308A300E4
:100608000A128A1512260A128A1183120313200865
:10061800303E0A128A11E3270A128A11C730831260
:100628000313AF003A300A128A11E3270A128A111B
:10063800C83083120313AF000A30F2000030F30011
:100648004508B200B3013208F4003308F5000A1275
:100658008A156B260A128A117208303E0A128A110C
:10066800E3270A128A11C93083120313AF000A3034
:10067800A0000030A1004508B200B3013208A20072
:100688003308A3000A128A1512260A128A11831245
:1006980003132008303E0A128A11E3270A128A112E
:1006A80083120313410803195A2B5B2B772B43083A
:1006B80003195F2B602B6C2B1C30F6008930F70078
:1006C800C530F8000A128A15D7240A128A11772B26
:1006D8001C30F6008930F700C830F8000A128A1575
:1006E800D7240A128A11FF30080083120313B500B9
:1006F80033303106031D812B822BAE2BD930F60007
:100708008830F7008130F8000A128A15D7240A12B7
:100718008A114230F6008830F700C130F8000A121A
:100728008A15D7240A128A11E130F6008830F700BA
:100738009130F8000A128A15D7240A128A11083053
:10074800F6008930F700D130F8000A128A15D7244C
:100758000A128A110430831203133506031DB52BC0
:10076800B62BE02B121DB92BBA2BE02B5A304602C0
:100778000318BF2BC02BE02B45081E3EC5003C309C
:100788004502031CC82BC92B1E2C0130C6073C3060
:10079800A0000030A1004508B200B3013208A20051
:1007A8003308A3000A128A1512260A128A11831224
:1007B80003132008C5001E2C04303506031DE52B45
:1007C800E62BED2B1219E92BEA2BED2B1215071549
:1007D8001E2C05303506031DF22BF32BF62B1211B8
:1007E80007111E2C06303506031DFB2BFC2B1E2C77
:1007F80007110A128A150B240A128A11D030F60042
:100808008830F700C430F8000A128A15D7240A1273
:100818008A110D3083120313B400AF30B300B53022
:10082800B200B20B152CB30B152CB40B152C1C2CC9
:100838000030D12C4508031D222C232C592C4608A6
:10084800031D272C282C592C07110A128A150B2452
:100858000A128A11BA30F6008830F700C330F8005F
:100868000A128A15D7240A128A113230F600883003
:10087800F7009030F8000A128A15D7240A128A1154
:100888008312031387144D3083120313B4001930F5
:10089800B3004F30B200B20B4F2CB30B4F2CB40B3C
:1008A8004F2C8312031387101C2C8830AF000A309A
:1008B800F2000030F3004608B200B3013208F40039
:1008C8003308F5000A128A156B260A128A11720873
:1008D800303E0A128A11E3270A128A1189308312DC
:1008E8000313AF000A30A0000030A1004608B20090
:1008F800B3013208A2003308A3000A128A1512268F
:100908000A128A11831203132008303E0A128A1130
:10091800E3270A128A118A3083120313AF003A3090
:100928000A128A11E3270A128A118B3083120313E1
:10093800AF000A30F2000030F3004508B200B301FE
:100948003208F4003308F5000A128A156B260A12D9
:100958008A117208303E0A128A11E3270A128A1194
:100968008C3083120313AF000A30A0000030A100BE
:100978004508B200B3013208A2003308A3000A12E6
:100988008A1512260A128A11831203132008303E90
:100998000A128A11E3270A128A1108008312031324
:1009A800B30033303306031DDA2CDB2CFA2DB430B8
:1009B800C4002630F6008830F7008230F8000A12AA
:1009C8008A15D7240A128A110130F6008930F700F7
:1009D800C230F8000A128A15D7240A128A11C830C0
:1009E80083120313AF000030F5000030F40000302C
:1009F800F3006430F2003D08F9003C08F8003B08B9
:100A0800F7003A08F6000A128A1531270A128A11E5
:100A18007208303E0A128A11E3270A128A11C93075
:100A280083120313AF000030A8000030A700003085
:100A3800A6000A30A5000030F5000030F4000030B0
:100A4800F3000A30F2003D08F9003C08F8003B08C2
:100A5800F7003A08F6000A128A1531270A128A1195
:100A6800750883120313AC007408AB007308AA005E
:100A78007208A9000A128A15BE250A128A11831261
:100A880003132508303E0A128A11E3270A128A1135
:100A9800CA3083120313AF000030A8000030A7004B
:100AA8000030A6000A30A5003D08AC003C08AB00A9
:100AB8003B08AA003A08A9000A128A15BE250A129C
:100AC8008A11831203132508303E0A128A11E3277C
:100AD8000A128A11CB3083120313AF00DF300A12D7
:100AE8008A11E3270A128A11CC3083120313AF004C
:100AF80043300A128A11E3270A128A11A230F6003B
:100B08008830F7009030F8000A128A15D7240A12A4
:100B18008A11FA2D9B30AF006430F2000030F300E8
:100B28004408B100B2013108F4003208F5000A1295
:100B38008A156B260A128A117208303E0A128A1127
:100B4800E3270A128A119C3083120313AF000A307C
:100B5800A0000030A1000A30F2000030F300440881
:100B6800B100B2013108F4003208F5000A128A1502
:100B78006B260A128A11730883120313A3007208E2
:100B8800A2000A128A1512260A128A118312031366
:100B98002008303E0A128A11E3270A128A119D3072
:100BA80083120313AF000A30A0000030A1004408EC
:100BB800B100B2013108A2003208A3000A128A1556
:100BC80012260A128A11831203132008303E0A12D1
:100BD8008A11E3270A128A119E3083120313AF0089
:100BE80073300A128A11E3270A128A118312031337
:100BF8004408031D002E012E8E2DD53083120313B9
:100C0800B100062E072EB10B052E0A2E0B2E0C2E28
:100C180000300800013083120313B7000A128A1546
:100C280042240A128A1183120313121101300A1284
:100C38008A1560240A128A1183120313B80002303D
:100C48003706031D282E292E102F3803031D2D2E9D
:100C58002E2E382E1130B7003330B9000A128A15FB
:100C68000B240A128A11102F02303806031D3D2E5C
:100C78003E2E412E1230B700322E03303806031DA7
:100C8800462E472E4C2E1330B7003330B900322E83
:100C980004303806031D512E522E572E1430B7003B
:100CA8003330B900322E102F0A128A1597270A12EC
:100CB8008A11003A031D612E622E2F2F0A128A15FF
:100CC8000B240A128A11023083120313B7001A2E5A
:100CD8003908B10038080A128A1113220A128A1137
:100CE800003A031D782E792E2F2F553083120313C7
:100CF800B7003330B9000A128A150B240A128A1178
:100D080083120313121507151A2E3908B100380873
:100D18000A128A1179230A128A11003A031D952EA4
:100D2800962E2F2F8312031312110A128A150B24E1
:100D38000A128A11023083120313B7002F2F0A12E6
:100D48008A15AA240A128A112F2F3908F90038089F
:100D58000A128A1583240A128A1183120313B70010
:100D68003330B9000A128A150B240A128A111A2E76
:100D78004430B7003330B9001A2E0A128A150B24F2
:100D88000A128A11DD3083120313B7003330B90019
:100D980012151A2E0A128A150B240A128A111330F8
:100DA80083120313B7003330B9001A2E3908B10083
:100DB80038080A128A1126200A128A11333A0319AE
:100DC800CE2EEE3A0319C12E2F2F39080A128A1592
:100DD8002F240A128A11003A031DF32EF42E2F2F06
:100DE800553083120313B7003330B90012150715B5
:100DF8001A2E39080A128A11D2240A128A11003AC4
:100E0800031D072F082F2F2F443083120313B70019
:100E18003330B9001211B62E831203133708013A82
:100E28000319582E033A0319A32E133A0319A92EAE
:100E3800033A0319BC2E013A0319DA2E073A0319AB
:100E4800E92E503A03196C2E113A0319892E883A63
:100E58000319FD2E2F2F223083120313B9001A2EE7
:100E68000A128A110C288312031388110815881492
:100E780008146430F2000030F300FF30F207031862
:100E8800F30AFF30F307720A031D4E2F730A031D7E
:100E98004E2F4F2F412F831203130618542F552F0F
:100EA800572F0130E22F86185A2F5B2F5D2F023003
:100EB800E22F0619602F612F632F0330E22F881568
:100EC8000811881408146430F2000030F300FF3071
:100ED800F2070318F30AFF30F307720A031D782F8D
:100EE800730A031D782F792F6B2F831203130618AB
:100EF8007E2F7F2F812F0430E22F8618842F852F95
:100F0800872F0530E22F06198A2F8B2F8D2F063059
:100F1800E22F88150815881008146430F200003094
:100F2800F300FF30F2070318F30AFF30F307720AE1
:100F3800031DA22F730A031DA22FA32F952F83121F
:100F480003130618A82FA92FAB2F0730E22F8618F6
:100F5800AE2FAF2FB12F0830E22F0619B42FB52FBF
:100F6800B72F0930E22F8815081588140810643047
:100F7800F2000030F300FF30F2070318F30AFF30E5
:100F8800F307720A031DCC2F730A031DCC2FCD2F34
:100F9800BF2F831203130618D22FD32FD52F2A3031
:100FA800E22F8618D82FD92FDB2F0030E22F061911
:100FB800DE2FDF2FE12F2330E22FFF3008008312CE
:100FC8000313B000F2012F080A128A1537250A12F6
:100FD8008A11F201F20A8312031330080A128A15E1
:0A0FE80037250A128A1108000134AF
:101000005334453454342034543449344D34453405
:1010100020343C344D344D343A34533453343E341C
:1010200000342A343A3443344C3445344134523455
:101030002034203423343A3445344E345434453447
:101040005234003466346F34723420345034723485
:1010500065342D34483465346134743469346E3405
:101060006734003445346E346A346F347934203454
:1010700079346F347534723420346D3465346134AE
:101080006C34003434342E345334543441345234B8
:1010900054342F3452344534533455344D3445345C
:1010A00000344D346934633472346F3477346134CE
:1010B0007634653420344F34763465346E340034FD
:1010C0005334453454342034543445344D3450343E
:1010D00020343C34203443343E34003450346F34B4
:1010E00077346534723420343D342034393430342C
:1010F00030345734003433342E3443346F346E3448
:10110000763465346334743469346F346E34003447
:1011100053346534743420344D3469346E3420349F
:10112000543465346D34703400345334653474345D
:1011300020344D34613478342034543465346D3483
:1011400070340034543469346D34653420344C3494
:101150006534663474343A342034003450346F3497
:1011600077346534723469346E34673420344F34E4
:101170006E340034543449344D34453420345534BD
:1011800050342134213421340034543445344D3426
:10119000503420343D342034303430343034003452
:1011A000533454344F34503450344534443421345F
:1011B0000034543449344D34453420343D342034E3
:1011C000003435342E34503441345534533445349E
:1011D000003432342E344734723469346C346C3415
:1011E000003431342E344D346934633472346F3406
:1011F000003434342E3453347434613472347434DF
:101200000034543465346D3470343A34203400344E
:1012100036342E34533454344F345034003455342F
:10122000703474346F3420340034543449344D34C1
:1012300045343A34003420342034203400343134FE
:10124000383430340034FF1B2D2983137F18831763
:101250000008840A0319FF0A08007F087F398A0002
:0A1260000408840A0319FF0A820043
:1017C2008316031308080F398800091189100A12B9
:1017D2008A15CE260A128A150800831203131214E0
:1017E2009214FA308316031392008C14831203139B
:1017F200121108008316031306080738860008082A
:10180200F039880081138312031388150815881490
:1018120008140800F20101300A128A1537250A124B
:101822008A150430F7003D30F600F60B162CF70B44
:10183200162C1B2C0800F400F301741C212C222C02
:10184200242C7208F3070310F20D0310F40C740831
:10185200031D2C2C2D2C1E2C73080800F300333092
:101862007306031D352C362C3B2C1E3083120313BA
:10187200C500C601A630F200F20B3D2C000000307C
:1018820008000A128A15E1230A128A150A128A1519
:10189200FB230A128A150A128A15EE230A128A15E6
:1018A2008B170B17831603130711831203130711E8
:1018B2008316031387108312031387100800F400A2
:1018C2000A128A1137270A128A15F5007408031DB5
:1018D2006B2C6C2C6E2C7508822C750A0319722CD9
:1018E200732C7A2C7B080319772C782C7A2CFB0129
:1018F2006C2C750A031D7E2C7F2C812C0130FB0081
:10190200FF30080033307906031D882C892CA82C5F
:101912006E30F6008830F700C230F8000A128A15DD
:10192200D7240A128A151A3083120313A2005E30DA
:10193200A1006D30A000A00B9C2CA10B9C2CA20B33
:101942009C2CA32C0A128A150B240A128A154430E5
:101952000800F130F6008830F7008030F8000A12F3
:101962008A15D7240A128A15E930F6008830F70062
:10197200C030F8000A128A15D7240A128A157B3061
:10198200F6008830F7009030F8000A128A15D72442
:101992000A128A15F930F6008830F700D030F800C4
:1019A2000A128A15D7240A128A150800F201780849
:1019B2000A128A1537250A128A15F52CF201F20A43
:1019C2007708FF00760884000A128A1523210A127A
:1019D2008A150A128A1537250A128A150130F60766
:1019E2000318F70A0030F707770883120313FF0082
:1019F200760884000A128A1523210A128A15003AEF
:101A0200031D042D052DDF2C0800831203138C1CEB
:101A12000B2D0C2D302D0130BE070318BF0A0030EC
:101A2200BF07E2303E06043003193F06031D1A2D9C
:101A32001B2D2F2DBE01BF010130C502450A031D1A
:101A4200232D242D282D3B30C5000130C602440829
:101A520003192C2D2D2D2F2D0130C4028C1071084D
:101A62008A00700E8300FE0E7E0E0900F5007218C9
:101A72003B2D3F2D831203130915422D83120313AD
:101A82000911F0307505F30008080F397304880056
:101A92008914A630F300F30B4C2D000083120313BC
:101AA200891075080F39F30004300310F30DFF3E5F
:101AB200031D562D08080F39730488008914A630B7
:101AC200F300F30B622D00008312031389101B3005
:101AD200F4009E30F300F30B6C2DF40B6C2D000020
:101AE2000800003083120313A3000030A20000306C
:101AF200A1000030A000721C7F2D802D992D760848
:101B020083120313A007770803110318013E031978
:101B12008B2DA107780803110318013E0319922D9A
:101B2200A207790803110318013E0319992DA3078F
:101B32000130FA000310F60DF70DF80DF90DFA0B4E
:101B42009B2D01300310F50CF40CF30CF20CFF3E4C
:101B5200031DA32D7508740473047204031DB22DB2
:101B6200B32D7C2D831203132308F5002208F40001
:101B72002108F3002008F20008008312031328084A
:101B82002704260425040319C72DC82D092E013068
:101B9200AE00D62D0130AD000310A50DA60DA70D88
:101BA200A80DAD0BCD2D0130AE07A81FD92DDA2D12
:101BB200CB2D28082C02031DE82D27082B02031D1C
:101BC200E82D26082A02031DE82D25082902031CF8
:101BD200EB2DEC2DFA2D2508A9022608031C260F51
:101BE200AA022708031C270FAB022808031C280F90
:101BF200AC0201300310A80CA70CA60CA50CFF3EEA
:101C0200031DFB2D0130AE02031D082E092EDA2D15
:101C12002C08A8002B08A7002A08A6002908A5005E
:101C2200080083120313A501A31F182E192E202EBC
:101C3200A209A309A20A0319A30A0130A500A11F40
:101C4200232E242E292EA009A109A00A0319A10AD4
:101C52002008210403192E2E2F2E5C2E0130A40001
:101C62003B2E01300310A00DA10DFF3E031D332EAC
:101C72000130A407A11F3E2E3F2E322E210823023F
:101C8200031D452E20082202031C482E492E4F2EEA
:101C92002008A2022108031CA303A302013003109F
:101CA200A10CA00CFF3E031D502E0130A402031D07
:101CB2005B2E5C2E3F2E25080319602E612E662EA8
:101CC200A209A309A20A0319A30A2308A100220850
:101CD200A0000800F701F31F6F2E702E772EF20975
:101CE200F309F20A0319F30A0130F700F51F7A2EFD
:101CF2007B2E822EF409F509F40A0319F50A013044
:101D0200F706F801F901720873040319892E8A2E65
:101D1200BF2E0130F600962E01300310F20DF30DA6
:101D2200FF3E031D8E2E0130F607F31F992E9A2EC9
:101D32008D2E01300310F80DF90DFF3E031D9B2E71
:101D420073087502031DA72E72087402031CAA2EC3
:101D5200AB2EB22E7208F4027308031CF503F502CF
:101D6200781401300310F30CF20CFF3E031DB32E66
:101D72000130F602031DBE2EBF2E9A2E77080319DC
:101D8200C32EC42EC92EF809F909F80A0319F90A53
:101D92007908F3007808F2000800C330F700CD306C
:101DA200F600F60BD22EF70BD22EF20133300A12C6
:101DB2008A1537250A128A151B30F7009E30F60065
:101DC200F60BE12EF70BE12E0000F20133300A127E
:101DD2008A1537250A128A15A630F600F60BEF2E61
:101DE2000000F20133300A128A1537250A128A15C9
:101DF200FA2EFB2E0000F20102300A128A15372554
:101E02000A128A15A630F600F60B052F0000F20121
:101E120028300A128A1537250A128A15A630F600CA
:101E2200F60B112F0000F20101300A128A15372534
:101E32000A128A150430F7003D30F600F60B1F2F08
:101E4200F70B1F2F242FF2010C300A128A153725A7
:101E52000A128A15A630F600F60B2D2F0000080094
:101E6200003083120313A3000030A2000030A1004F
:101E72000030A00075087404730472040319422F21
:101E8200432F8E2F0130A400512F0130FA0003108E
:101E9200F20DF30DF40DF50DFA0B482F0130A407E6
:101EA200F51F542F552F462F0130FA000310A00DB5
:101EB200A10DA20DA30DFA0B572F75087902031D70
:101EC2006C2F74087802031D6C2F73087702031DB0
:101ED2006C2F72087602031C6F2F702F7F2F7208EF
:101EE200F6027308031C730FF7027408031C740FC5
:101EF200F8027508031C750FF90220140130031053
:101F0200F50CF40CF30CF20CFF3E031D802F013094
:101F1200A402031D8D2F8E2F552F2308F5002208B2
:101F2200F4002108F3002008F200080083120313D2
:101F3200B4013408803EAF00FF300A128A11E32751
:101F42000A128A15D53083120313B100A82FA92FC4
:101F5200B10BA72FAC2FAD2FAE2F0130831203137D
:101F6200B40710303402031CB72FB82F9A2FAE30AB
:101F7200F6008830F700C230F8000A128A15D7241A
:101F82000A128A155130F6008830F7009130F800B5
:101F92000A128A15D7240A128A1583120313B5016D
:101FA2003508D03EAF00FF300A128A11E3270A1229
:101FB2008A15C33083120313B200CC30B100B10BC7
:101FC200E02FB20BE02F0000013083120313B5079C
:101FD20010303502031CEE2FEF2FD12F1A3083124F
:101FE2000313B3005E30B2006D30B100B10BF72FB6
:0E1FF200B20BF72FB30BF72FFE2F00300800B5
:02400E00FB3F76
:00000001FF
